{
  "contractName": "ExampleTokenCrowdsale",
  "abi": [
    {
      "constant": true,
      "inputs": [],
      "name": "hasClosed",
      "outputs": [
        {
          "name": "",
          "type": "bool"
        }
      ],
      "payable": false,
      "stateMutability": "view",
      "type": "function"
    },
    {
      "constant": true,
      "inputs": [],
      "name": "rate",
      "outputs": [
        {
          "name": "",
          "type": "uint256"
        }
      ],
      "payable": false,
      "stateMutability": "view",
      "type": "function"
    },
    {
      "constant": true,
      "inputs": [],
      "name": "cap",
      "outputs": [
        {
          "name": "",
          "type": "uint256"
        }
      ],
      "payable": false,
      "stateMutability": "view",
      "type": "function"
    },
    {
      "constant": true,
      "inputs": [],
      "name": "weiRaised",
      "outputs": [
        {
          "name": "",
          "type": "uint256"
        }
      ],
      "payable": false,
      "stateMutability": "view",
      "type": "function"
    },
    {
      "constant": true,
      "inputs": [
        {
          "name": "",
          "type": "address"
        }
      ],
      "name": "contributions",
      "outputs": [
        {
          "name": "",
          "type": "uint256"
        }
      ],
      "payable": false,
      "stateMutability": "view",
      "type": "function"
    },
    {
      "constant": true,
      "inputs": [],
      "name": "closingTime",
      "outputs": [
        {
          "name": "",
          "type": "uint256"
        }
      ],
      "payable": false,
      "stateMutability": "view",
      "type": "function"
    },
    {
      "constant": true,
      "inputs": [],
      "name": "capReached",
      "outputs": [
        {
          "name": "",
          "type": "bool"
        }
      ],
      "payable": false,
      "stateMutability": "view",
      "type": "function"
    },
    {
      "constant": true,
      "inputs": [],
      "name": "wallet",
      "outputs": [
        {
          "name": "",
          "type": "address"
        }
      ],
      "payable": false,
      "stateMutability": "view",
      "type": "function"
    },
    {
      "constant": true,
      "inputs": [],
      "name": "investorMinCap",
      "outputs": [
        {
          "name": "",
          "type": "uint256"
        }
      ],
      "payable": false,
      "stateMutability": "view",
      "type": "function"
    },
    {
      "constant": true,
      "inputs": [],
      "name": "openingTime",
      "outputs": [
        {
          "name": "",
          "type": "uint256"
        }
      ],
      "payable": false,
      "stateMutability": "view",
      "type": "function"
    },
    {
      "constant": false,
      "inputs": [
        {
          "name": "_beneficiary",
          "type": "address"
        }
      ],
      "name": "buyTokens",
      "outputs": [],
      "payable": true,
      "stateMutability": "payable",
      "type": "function"
    },
    {
      "constant": true,
      "inputs": [],
      "name": "investorHardCap",
      "outputs": [
        {
          "name": "",
          "type": "uint256"
        }
      ],
      "payable": false,
      "stateMutability": "view",
      "type": "function"
    },
    {
      "constant": true,
      "inputs": [],
      "name": "token",
      "outputs": [
        {
          "name": "",
          "type": "address"
        }
      ],
      "payable": false,
      "stateMutability": "view",
      "type": "function"
    },
    {
      "inputs": [
        {
          "name": "_rate",
          "type": "uint256"
        },
        {
          "name": "_wallet",
          "type": "address"
        },
        {
          "name": "_token",
          "type": "address"
        },
        {
          "name": "_cap",
          "type": "uint256"
        },
        {
          "name": "_openingTime",
          "type": "uint256"
        },
        {
          "name": "_closingTime",
          "type": "uint256"
        }
      ],
      "payable": false,
      "stateMutability": "nonpayable",
      "type": "constructor"
    },
    {
      "payable": true,
      "stateMutability": "payable",
      "type": "fallback"
    },
    {
      "anonymous": false,
      "inputs": [
        {
          "indexed": true,
          "name": "purchaser",
          "type": "address"
        },
        {
          "indexed": true,
          "name": "beneficiary",
          "type": "address"
        },
        {
          "indexed": false,
          "name": "value",
          "type": "uint256"
        },
        {
          "indexed": false,
          "name": "amount",
          "type": "uint256"
        }
      ],
      "name": "TokenPurchase",
      "type": "event"
    }
  ],
  "bytecode": "0x6080604052671bc16d674ec800006007556802b5e3af16b188000060085534801561002957600080fd5b5060405160c080610aa683398101806040528101908080519060200190929190805190602001909291908051906020019092919080519060200190929190805190602001909291908051906020019092919050505081818488888860008311151561009357600080fd5b600073ffffffffffffffffffffffffffffffffffffffff168273ffffffffffffffffffffffffffffffffffffffff16141515156100cf57600080fd5b600073ffffffffffffffffffffffffffffffffffffffff168173ffffffffffffffffffffffffffffffffffffffff161415151561010b57600080fd5b8260028190555081600160006101000a81548173ffffffffffffffffffffffffffffffffffffffff021916908373ffffffffffffffffffffffffffffffffffffffff160217905550806000806101000a81548173ffffffffffffffffffffffffffffffffffffffff021916908373ffffffffffffffffffffffffffffffffffffffff1602179055505050506000811115156101a557600080fd5b80600481905550504282101515156101bc57600080fd5b8181101515156101cb57600080fd5b816005819055508060068190555050505050505050506108b6806101f06000396000f3006080604052600436106100c5576000357c0100000000000000000000000000000000000000000000000000000000900463ffffffff1680631515bc2b146100d05780632c4e722e146100ff578063355274ea1461012a5780634042b66f1461015557806342e94c90146101805780634b6753bc146101d75780634f93594514610202578063521eb27314610231578063b25d7f5414610288578063b7a8807c146102b3578063ec8ac4d8146102de578063ed5db87414610314578063fc0c546a1461033f575b6100ce33610396565b005b3480156100dc57600080fd5b506100e5610464565b604051808215151515815260200191505060405180910390f35b34801561010b57600080fd5b50610114610470565b6040518082815260200191505060405180910390f35b34801561013657600080fd5b5061013f610476565b6040518082815260200191505060405180910390f35b34801561016157600080fd5b5061016a61047c565b6040518082815260200191505060405180910390f35b34801561018c57600080fd5b506101c1600480360381019080803573ffffffffffffffffffffffffffffffffffffffff169060200190929190505050610482565b6040518082815260200191505060405180910390f35b3480156101e357600080fd5b506101ec61049a565b6040518082815260200191505060405180910390f35b34801561020e57600080fd5b506102176104a0565b604051808215151515815260200191505060405180910390f35b34801561023d57600080fd5b506102466104af565b604051808273ffffffffffffffffffffffffffffffffffffffff1673ffffffffffffffffffffffffffffffffffffffff16815260200191505060405180910390f35b34801561029457600080fd5b5061029d6104d5565b6040518082815260200191505060405180910390f35b3480156102bf57600080fd5b506102c86104db565b6040518082815260200191505060405180910390f35b610312600480360381019080803573ffffffffffffffffffffffffffffffffffffffff169060200190929190505050610396565b005b34801561032057600080fd5b506103296104e1565b6040518082815260200191505060405180910390f35b34801561034b57600080fd5b506103546104e7565b604051808273ffffffffffffffffffffffffffffffffffffffff1673ffffffffffffffffffffffffffffffffffffffff16815260200191505060405180910390f35b6000803491506103a6838361050c565b6103af826105d9565b90506103c6826003546105f790919063ffffffff16565b6003819055506103d68382610613565b8273ffffffffffffffffffffffffffffffffffffffff163373ffffffffffffffffffffffffffffffffffffffff167f623b3804fa71d67900d064613da8f94b9617215ee90799290593e1745087ad188484604051808381526020018281526020019250505060405180910390a361044d8383610621565b610455610625565b61045f8383610690565b505050565b60006006544211905090565b60025481565b60045481565b60035481565b60096020528060005260406000206000915090505481565b60065481565b60006004546003541015905090565b600160009054906101000a900473ffffffffffffffffffffffffffffffffffffffff1681565b60075481565b60055481565b60085481565b6000809054906101000a900473ffffffffffffffffffffffffffffffffffffffff1681565b6000806105198484610694565b600960008573ffffffffffffffffffffffffffffffffffffffff1673ffffffffffffffffffffffffffffffffffffffff16815260200190815260200160002054915061056e83836105f790919063ffffffff16565b9050600754811015801561058457506008548111155b151561058f57600080fd5b80600960008673ffffffffffffffffffffffffffffffffffffffff1673ffffffffffffffffffffffffffffffffffffffff1681526020019081526020016000208190555050505050565b60006105f0600254836106c190919063ffffffff16565b9050919050565b6000818301905082811015151561060a57fe5b80905092915050565b61061d82826106f9565b5050565b5050565b600160009054906101000a900473ffffffffffffffffffffffffffffffffffffffff1673ffffffffffffffffffffffffffffffffffffffff166108fc349081150290604051600060405180830381858888f1935050505015801561068d573d6000803e3d6000fd5b50565b5050565b60055442101580156106a857506006544211155b15156106b357600080fd5b6106bd8282610807565b5050565b6000808314156106d457600090506106f3565b81830290508183828115156106e557fe5b041415156106ef57fe5b8090505b92915050565b6000809054906101000a900473ffffffffffffffffffffffffffffffffffffffff1673ffffffffffffffffffffffffffffffffffffffff166340c10f1983836040518363ffffffff167c0100000000000000000000000000000000000000000000000000000000028152600401808373ffffffffffffffffffffffffffffffffffffffff1673ffffffffffffffffffffffffffffffffffffffff16815260200182815260200192505050602060405180830381600087803b1580156107bd57600080fd5b505af11580156107d1573d6000803e3d6000fd5b505050506040513d60208110156107e757600080fd5b8101908080519060200190929190505050151561080357600080fd5b5050565b610811828261083a565b600454610829826003546105f790919063ffffffff16565b1115151561083657600080fd5b5050565b600073ffffffffffffffffffffffffffffffffffffffff168273ffffffffffffffffffffffffffffffffffffffff161415151561087657600080fd5b6000811415151561088657600080fd5b50505600a165627a7a7230582045b964114e2de5bd0cc4bf0b6c54f114d59af33b91d99516eea841981a5dae8c0029",
  "source": "pragma solidity ^0.4.24;\n\n\nimport \"openzeppelin-solidity/contracts/crowdsale/Crowdsale.sol\";\nimport \"openzeppelin-solidity/contracts/crowdsale/emission/MintedCrowdsale.sol\";\nimport \"openzeppelin-solidity/contracts/crowdsale/validation/CappedCrowdsale.sol\";\nimport \"openzeppelin-solidity/contracts/crowdsale/validation/TimedCrowdsale.sol\";\n\n\n\ncontract ExampleTokenCrowdsale is MintedCrowdsale, CappedCrowdsale, TimedCrowdsale{\n\n\t//minimum investor Contribution - 2 ether\n\t//minimum investor Contribution - 50 ether\n\tuint256 public investorMinCap = 2000000000000000000;\n\tuint256 public investorHardCap = 50000000000000000000;\n\n\tmapping(address => uint256) public contributions;\n\n\tconstructor(uint256 _rate,\n\t  address _wallet,\n\t  ERC20 _token,\n\t  uint256 _cap,\n\t  uint256 _openingTime,\n\t  uint256 _closingTime)\n\tCrowdsale(_rate, _wallet, _token)\n\tCappedCrowdsale(_cap)\t\n\tTimedCrowdsale(_openingTime, _closingTime)\n\tpublic{\n\t}\n\n\n  function _preValidatePurchase(\n    address _beneficiary,\n    uint256 _weiAmount\n  )\n    internal\n  {\n    super._preValidatePurchase(_beneficiary, _weiAmount);\n    uint256 _existingContribution = contributions[_beneficiary];\n    uint256 _newContribution = _existingContribution.add(_weiAmount);\n    require(_newContribution >= investorMinCap && _newContribution <= investorHardCap);\n\tcontributions[_beneficiary] = _newContribution;     \n  }\n\n\n}",
  "sourcePath": "D:/ICO/contracts/MyTokenSale.sol",
  "compiler": {
    "name": "solc",
    "version": "0.4.24+commit.e67f0147.Emscripten.clang"
  },
  "schemaVersion": "3.0.2",
  "updatedAt": "2019-03-14T01:09:34.944Z",
  "devdoc": {
    "methods": {
      "buyTokens(address)": {
        "details": "low level token purchase ***DO NOT OVERRIDE***",
        "params": {
          "_beneficiary": "Address performing the token purchase"
        }
      },
      "capReached()": {
        "details": "Checks whether the cap has been reached.",
        "return": "Whether the cap was reached"
      },
      "hasClosed()": {
        "details": "Checks whether the period in which the crowdsale is open has already elapsed.",
        "return": "Whether crowdsale period has elapsed"
      }
    }
  },
  "userdoc": {
    "methods": {}
  }
}